8=FIX.4.4|9=112|35=Y|49=LMXBDM|56=ghill2|34=3|52=20230918-18:56:12.155|262=QuoteTick-EUR/USD.LMAX|281=1|58=DUPLICATE_REQUEST_ID|10=005