8=FIX.4.4|9=236|35=8|49=LMXBD|56=ghill2|34=5|52=20230915-11:47:31.677|1=1649599582|11=3cbf1b78-66e5-4ab0-8|48=100934|22=8|54=1|37=AACkAgAAAABD02nK|59=4|40=1|60=20230915-11:47:31.677|6=26505.75|17=0|527=0|790=c9f301613f5b87f0|39=2|150=I|14=1|151=0|38=1|10=061
# An `ExecutionReport` message sent in response to a `OrderStatusRequest` message for a market order that was filled