8=FIX.4.4|9=236|35=8|49=LMXBD|56=ghill2|34=4|52=20230915-11:37:41.575|1=1649599582|11=2b7d3837-31c0-4ac4-9|48=100934|22=8|54=1|37=AACkAgAAAABD01/s|59=4|40=1|60=20230915-11:37:41.575|6=26525.14|17=0|527=0|790=ca9b2379f06ca5c0|39=2|150=I|14=1|151=0|38=1|10=014
# An `ExecutionReport` message sent in response to a `OrderStatusRequest` message for a market order that was filled